:10000000C01A002045800100F9290000FD290000E8
:10001000A70B0000000000000000FFFF54000000DC
:1000200004180F00000000000000000000000000A5
:1000300000000000000000000000000000000000C0
:10004000000000000000000000000000A701000008
:0400500000000000AC
:10005400C01A002045800100F9290000FD29000094
:10006400A70A0A010002000004180FACA067A70148
:10007400000000000000000000000000000000007C
:10008400000000000000000000000000000000006C
:100094000000000000000000FFFFFFFFFFFFFFFF64
:1000A400FFFFFFFF006007000000000000000000E9
:1000B400FFFFFFFFFFFFFFFF8000000000000000C4
:1000C400000000000000000000000000000000002C
:1000D4000000000000000000B44C0020B44C0020DC
:1000E400C01A0020DC750300D8FF02006011002054
:0C00F4002C11002000E0070000000000BC
:10020000C01A002045800100F9290000FD290000E6
:100210000D720000012A0000092A0000438001003D
:1002200043800100438001004380010043800100BE
:100230000D2A00004380010043800100438001003B
:10024000802A0000802A0000802A0000802A000006
:10025000802A0000E945000019530000802A0000B0
:10026000802A0000802A0000ED430000359700003E
:10027000802A0000802A0000802A0000802A0000D6
:10028000802A0000802A0000802A000043800100AC
:10029000802A0000453C0000802A0000802A0000DF
:1002A000802A0000453D00001D3D0000802A00001E
:1002B000802A0000802A0000802A0000155A0100D0
:1002C000A15901009D590100DD500100115A0100A2
:1002D000A5590100C5590100A95901004380010039
:1002E000595A0100802A0000802A0000E12C0000F9
:1002F000802A0000802A0000802A0000438001003C
:10030000802A0000802A0000802A0000802A000045
:10031000802A0000802A0000802A0000802A000035
:10032000802A0000802A0000802A0000802A000025
:04033000802A00001F
:10033400F8B500BFF8BC08BC9E467047F8B500BFCE
:10034400F8BC08BC9E46704710B5054C237833B9F9
:10035400044B13B1044800E000BF0123237010BD17
:10036400A822002000000000EC6D030008B5034B38
:100374001BB10349034800E000BF08BD00000000B2
:10038400AC220020EC6D0300154B002B08BF134B6F
:100394009D46A3F5803A00218B460F461348144A24
:1003A400121A2FF0F3FD0F4B002B00D098470E4B81
:1003B400002B00D098470020002104000D000D48B8
:1003C400002802D00C4800E000BF2FF0A1FD20005F
:1003D400290009F0D7FB2FF087FD00BF00000800BB
:1003E400C01A00200000000000000000A822002025
:1003F400B44C002000000000000000001FB50123E1
:100404000022009306210DF10F030BF050FC20B9DC
:100414009DF80F3023B102F033FB05B05DF804FB07
:1004240002F02FFBF9E7000030B50024144D85B02D
:100434002C700AF047FA022817D100900DF10E0330
:100444002246032101200BF032FCBDF80E0048B116
:10045400204602F017FB4FF47A6128461CF0BEFBDD
:1004640005B030BD02F00CFBFAE707F087FE054B40
:100474000090054A054901200CF0C8FDF0E700BFD3
:10048400D83E0020AC160300D8FF0200DDFF0200B6
:1004940008B50AF017FA02280CD10022064B0120F5
:1004A4001A7006F0B9FDBDE8084002460349012070
:1004B4000CF0ACBD08BD00BFD03E00202B000300F3
:1004C400912808B504D1002002F0DBFA002008BD11
:1004D4009028FBD1002002F0D3FA02481CF072FBF2
:1004E400F4E700BFD03E002013B5044600900A4B49
:1004F4000A4A0B4901200CF089FD5CB122460949E6
:1005040001200CF083FD0094074B084A04490120A4
:100514000CF07CFD02B010BDF1FF0200D8FF020018
:10052400DDFF0200FAFF0200AC1603002600030000
:10053400FFF764BF09B9FFF761BF704738B5C37BE4
:1005440005460BB1832038BDC47C2CB901F0E2FA16
:1005540020B9EB7B002BF5D18120F4E72046F2E7AC
:10056400C37B10B504460BB1832010BDC37C1BB103
:10057400012B10D08120F8E7017D82898B1C9A42DF
:100584000CD380680CF0A3F806F0B8FE40B9E37B06
:10059400002BE9D1EEE706F0C9FEF7E78020E4E797
:1005A4000020E2E7C37B10B504460BB1832010BDE5
:1005B400C37C012B0BD003D3022B0BD08120F6E795
:1005C40007F09AFF48B9E37B002BEFD1F6E707F079
:1005D400A3FFF7E707F0B0FFF4E70020E7E738B53B
:1005E400C37B0446002B437D14BF8325C325012B05
:1005F40014D0637DD3B92368228A598858790AF0C4
:1006040064FE98B123685B88032B11D0062B14D0A9
:1006140063B92046BDE83840FFF790BF0368028AFB
:10062400598858790AF05AFE0028E2D0284638BD85
:100634002046BDE83840FFF793BF2046BDE8384068
:10064400FFF7B0BF704701207047012070470120B9
:1006540070477047002070470020704700207047A3
:10066400002070470020704700207047002070472A
:100674000120704701207047B52070470020704763
:10068400002070470020704700207047704700200A
:1006940070477047002070477047812070470020E2
:1006A40070478420704770477047704770477047A1
:1006B4000020704700207047034B1B6818780128FE
:1006C40008BF0220704700BF443700200020704755
:1006D40003460120024AC3E9032000221A7070472E
:1006E4000100FEFF70470020704700207047002083
:1006F400704700207047002070470020704700209A
:1007040070477047B520704700207047002070473D
:1007140070470020704770477047B5207047704796
:100724007047704700207047704770470023FF21CF
:10073400084A137082F8783082F8653082F877308E
:1007440082F8793082F87A1082F87B30024A13609A
:10075400704700BFC4220020E03E0020F8B50D46DB
:100764008C680A6806462849202002F0F6FF6B6868
:100774007BB92649202002F0F0FF202008F0BEFDBE
:100784002349202002F0FEFFBDE8F840202008F0B5
:10079400B5BD002EF1D01F4D1F4E204F013C14F863
:1007A400013F23B91A49202002F0ECFFE5E7752B3D
:1007B40018D0762B18D0772B18D0732B18D0722B17
:1007C40018D0712B18D0622B18D06E2B18D02A2B6E
:1007D40018D01349134A212B18BF1146202002F0C8
:1007E400BCFFDCE72946F9E73146F7E73946F5E788
:1007F4000D49F3E70D49F1E70D49EFE70D49EDE741
:100804000D49EBE70D49E9E759440300DF00030014
:10081400900003009D00030091000300A800030062
:10082400E9000300E6000300B4000300BE00030077
:10083400C9000300D4000300DE000300E30003004A
:10084400F0B50026204A92F87B30184452FA80F022
:1008540090F865C090F8665030461C4BA5EB0C052B
:100864001F78EDB2F4B2A54225D90CEB060313446C
:100874005B7811B10CB92D2B17D0782B1FD0582BC6
:1008840005D108B137240AE0013C012C14D9602BAE
:1008940017D8402BF6D83A2B34BF302400241B1B26
:1008A400DBB29F4203D900FB07300136DAE70523A8
:1008B400002082F87930F0BD10270020F5E70028E9
:1008C400E2D05724EBE700BFC4220020581C0020CC
:1008D400FFF72CBF034B93F8770093F87B30C01AD3
:1008E400C0B27047C42200200021FFF7A9BF000056
:1008F40010B50A4B93F87B20024453FA82F292F823
:10090400652013445C78A4F12D0359425941FFF743
:1009140097FF2D2C08BF404210BD00BFC422002009
:1009240030B50C4A92F87B300344C043DBB2C00FAD
:1009340039B1D51895F8664095F86550641B241AAA
:100944000C7042FA83F393F865301844024B184450
:1009540030BD00BFC4220020C5220020F7B51546D3
:100964000E460DF107011C46FFF7DAFF9DF807302C
:100974000746AB4288BF8DF807501CB19DF807406D
:100984002C1BE4B222463046002100F079FB3019DA
:100994009DF80720394600F017FB9DF8070003B0C7
:1009A400F0BD38B50C4601230822FFF7D7FF04F148
:1009B4000803621E043413F8011D12F8015FA342F8
:1009C4001D701170F7D138BD38B5054601460120B8
:1009D400FFF7C4FED5E901436CB91C46084D2368F2
:1009E40063B12946202002F0B8FE21460020FFF71B
:1009F400B5FE0C34F3E71B786E2BEFD038BD00BF87
:100A04004417030008B50449202002F0A6FEBDE8FF
:100A14000840202008F072BC5100030038B5FFF7ED
:100A2400F1FF0024054D61190C34631953F80C3C93
:100A340003B938BD0020FFF791FEF4E7A40D0300CD
:100A44002DE9F84F1F4B204D53F820201F4920203B
:100A540002F083FE2B681BB9BDE8F84FFFF7DEBF39
:100A64001B4FFFF7CFFF0026B946DFF86CA097F8BD
:100A74007B30F4B2013B9C4204DB2868BDE8F84FAC
:100A8400FFF7A2BF47FA86F393F8658000234C442E
:100A9400C84494F8662094F8651003F1010B521AC7
:100AA400DBB2D2B2934205D30A49202002F055FEAC
:100AB4000136DCE743445A785146202002F04DFECB
:100AC4005B46E6E75C1C0020E03E00204C0003008F
:100AD400C422002045170300844803002DE9F74F82
:100AE400884C94F87730002B00F0A180864B671C6B
:100AF4001B7813F0010F1FD00025844E14E06319F6
:100B040093F8662093F865302020D21A44FA85F3CE
:100B140093F86510D2B2394408F0EBFB314620203B
:100B240002F01BFE0135EDB294F87730AB42E6D803
:100B34007749202002F011FE002694F87730DFF880
:100B4400DCE10193734B4FF00008714645461EF8F3
:100B5400012B91F801C007EB020AACEB020C5FFA1F
:100B64008CFC1868002852D00138D14619E02AB903
:100B7400002D4AD04FF001080C33F2E719F8011B9D
:100B8400A1F1410BBBF1190F98BF2031A2F1410B28
:100B940098BFC9B2BBF1190F9CBF2032D2B28A42AE
:100BA400EAD1A9EB0A01614510F8012FDFD1002A2F
:100BB400DED11D46584B01361D6094F87B30F6B2E9
:100BC400013384F87B30D5E90123002A35D01B7822
:100BD4006E2B31D03F2B23D04FF000094FF0070B81
:100BE400C846042394F87710AA68B14212F8087032
:100BF4002BD8AFB1904498F801302A2B10D0212F74
:100C04001CBF032384F879300AE01D46B4E7B8F129
:100C1400000F01D1002DCDD10223002584F87930B5
:100C240094F87900002869D168680BF03FFA03B0A2
:100C3400BDE8F04FFFF77ABD1346019AB24282D85D
:100C440003221D4684F87920EAE7732F09D8712F0F
:100C54000BD2212F1FD0622F3CD0002F4BD1032267
:100C640046E0A7F17502022A45D8752F29D0762FC0
:100C74002AD0732F2BD0722F47F6FF7A18BF4FF06C
:100C8400FF3A012148460193FFF7DAFD5045019BE5
:100C940001D984F87930AA68424452782A2A94F80F
:100CA40079201CBF08F101085FFA88F8002AB7D13F
:100CB400212F1FBF013609F10109F6B25FFA89F944
:100CC40090E74FF0FF0ADCE74FF6FF7AD9E74FF0E1
:100CD4007F0AD6E794F87B204A4454FA82F292F8C9
:100CE400652022445278222AD5D07B2AD3D00522EB
:100CF40084F87920CFE784F879B0CCE7FFF7A0FE39
:100D040095E700BFC42200204023002045170300BC
:100D14008E000300A40D0300E03E002029230020E0
:100D24002DE9F34106460D464FF000085C4C5D4F3B
:100D340066B90DF10701284608F0D6FA78B12628DD
:100D440000F0A980012384F879304BE0002D00F0F5
:100D5400A28016F8013B013D8DF80730EDB23A78D8
:100D64009DF807300D2A3B7001D10A2BE0D00D2BE2
:100D74000CD0A3F10A025142514122788846042A38
:100D8400D6D8DFE802F0051D263C31000121F4E746
:100D940021B1FFF7A3FE4FF00108C9E7202B63D070
:100DA400222B07D10223237094F87820642A5DD182
:100DB4000623C8E77B2B01D10323F4E70123F2E7E1
:100DC40009B9202BF0D194F87730112B3FD10323AC
:100DD400B9E7222BF7D00029E6D005234FF001080C
:100DE40084F8793004232370B8F1000FA0D094F86C
:100DF400790008B1FFF724FEFFF798FC98E77D2BF4
:100E040094F87A0003D1FF28DDD005239BE7602BFB
:100E140013D8402B13D8392B8CBF002230229A1AB6
:100E2400D2B20F2A10D8FF280BD0FF2302EB0012F6
:100E34008DF8072084F87A30B6E75722EFE7372297
:100E4400EDE784F87A2073E7202BDED170E70133D5
:100E5400DBB294F8782084F87730234483F8652053
:100E640000232370002994D1884661E72378012B5D
:100E740009D19DF80730A3F1410119299CBF203302
:100E8400DBB28DF807309DF80710A31801325970B2
:100E940084F878204CE7404602B0BDE8F08100BFFA
:100EA400C42200204123002049BA89B24840C0F33B
:100EB40003114140080380B24840C3B280EA4310A2
:100EC400704718F08FB87047704770477047704785
:100ED4007047704770477047704770477047704756
:100EE4007047002070477047704700207047704774
:100EF4007047002070477047704770470020704764
:100F04007047012070470120704770477047704751
:100F140070477047704770472DE9F0470024204D13
:100F2400DFF89C90DFF89CA05FFA84F840461BF041
:100F340013FCFF2806460CD122461A49287802F0F1
:100F440021FC2878013408F0D9F9142CECD1BDE83F
:100F5400F087154B47B213EA270338BF534659F8B5
:100F640024201249287802F00DFC002FE9DA14B18C
:100F7400B8F1030F08D10E4B16F0010F0D49287874
:100F840018BF194602F0FEFB0A2CDAD10A4B16F000
:100F9400010F0A49287818BF194602F0F3FBD0E77D
:100FA4009D1F002005020300900003002D02030092
:100FB400C8010300DE010300F0010300FA0103008D
:100FC40074010300CC4403008842F0B54FEA920355
:100FD4001AD804460D469BB29E0087190437043480
:100FE400BC4205F104053AD1C3EB8333314402EB2F
:100FF4008303013E304411FA83F3994220D011F85F
:10100400012B00F8012FF8E7541E204421440D461B
:1010140004469BB2A0EB8306043E043CB442A5F113
:1010240004050ED16FF003045C43C3EB833302EB7E
:10103400830321449BB201342044CB1A994209D141
:10104400F0BD2F792771EF78E770AF78A7706F78CC
:101054006770E2E711F8012900F8012DEEE715F8B1
:1010640004CC04F804CC15F803CC04F803CC15F82C
:1010740002CC04F802CC15F801CC04F801CCAEE79C
:101084000244904200D1704700F8011BF9E710B503
:10109400013801390AB9104606E010F8014F11F879
:1010A400013F9C4201D0E01A10BD013A92B2F1E72F
:1010B40082B2074B4AB1000C1A8008BF4FF6CE2209
:1010C400044B14BF18801A8070474BF6EF62F2E7A6
:1010D4002C1D00202E1D0020094B1888020448BF37
:1010E40080F0620042001A80064A1388190444BF43
:1010F40083F4805383F00B035900118058407047E8
:101104002C1D00202E1D00200022034B1870034BC1
:101114001970034B1A7070474B2300204A23002098
:101124004C2300202DE9F04F234E85B03378074639
:101134008846002B3DD04FF6FB73204D98422C7807
:1011440003D952211E4801F0F5F81E4B4FF0000B55
:101154009A4632785FFA8BF94A45187811D948448F
:1011640002A9C0B2019324F0E7F8082241460DEB2E
:101174000200FFF78CFF0BF1010B019B0028E8D163
:101184004C462B78A34207D1631C3278DBB29A42D7
:101194002B7004BF00232B709AF8003041461C4486
:1011A400E4B2204624F0F0F918B93946204624F078
:1011B40091F805B0BDE8F08F4A2300204C230020AD
:1011C400220303004B230020024B187800F07F0019
:1011D400704700BF4D230020034B18780130C0B284
:1011E400187000F07F0070474D2300201FB5030ADC
:1011F4008DF80E300323009303AB8DF80D0000F03F
:10120400BFF905B05DF804FB1FB58DF80F1004217C
:10121400030A8DF80E30009103AB8DF80D0000F039
:10122400AFF905B05DF804FB2DE9F043994689B0A8
:10123400BDF840509DF84460074688460DF109000A
:1012440011460822BDF84C40FFF7BEFE8DF812503F
:10125400012E4FEA15258DF811908DF813508DF855
:10126400146017D0032E1CD1082212990DF1150019
:10127400FFF7AAFE9DF850308DF81D301623009319
:10128400BDF8542002AB4146384600F079F909B064
:10129400BDE8F0838DF81540240A8DF816400F231D
:1012A400EDE70120F3E71FB50C46194602238DF83C
:1012B4000D2000930A4603AB0146204600F060F976
:1012C40004B010BD70B586B0044616460DF10D008D
:1012D40008221D46FFF778FE0A232A46009334218C
:1012E40003AB20468DF8156000F04AF906B070BDD6
:1012F40030B5002485B0ADF80A20021D92B2012A4F
:101304001D46ADF80840ADF80610ADF8044003D909
:101314004FF6FF72904207D1064A2B46127801A974
:1013240022F04CF905B030BD014601AA204622F056
:101334000BFAF7E7301D00202DE9F74F9846FF2AF6
:1013440016BF474B00241B680E4618BF9C5C8146A1
:1013540018BF6408B8F1FF0F16BF414B00271B6884
:1013640015461CBF13F808707F08FFF735FF4FEAD6
:1013740019238DF800008DF803600621360A6846AB
:101384008DF804608DF801908DF802308DF80540D9
:101394001BF09AFFFF28064604D11824204603B008
:1013A400BDE8F08F4FEA440B0BF1070A0AEB470143
:1013B400C9B21BF03DFF0028EFD10446A3451BD161
:1013C4000BF106013A4601F0FE0130465FFA8AF459
:1013D4001BF0F5FF4FF0000A5FFA8AF5AF4223D8FD
:1013E4003346BDF8302006214846FFF781FF044606
:1013F40030461BF00BFED1E7214628461BF0DAFFEE
:10140400A11D0246C9B230461BF0D9FF611CC9B206
:1014140028461BF0CFFFE11D0246C9B23046023414
:101424001BF0CDFFE4B2C9E76D00EDB2294640469A
:101434001BF0C0FF2146024630461BF0C0FF691C6A
:10144400C9B240461BF0B6FF611C0246C9B2304621
:1014540002341BF0B4FF0AF1010AE4B2BCE700BF96
:10146400C81C00202DE9F04188B00F4602A90646A9
:1014740009F0F4FA00287CD0FFF7AEFE8DF81000D6
:101484001BF03EFB8DF811001BF03AFB000A8DF8AF
:101494001200082239490DF11300FFF795FDBDF83C
:1014A40008300F218DF81C301B0A8DF81D309DF873
:1014B4000D3004A88DF81B608DF81E301BF004FF5E
:1014C400FF28044657D04FF000089DF80D305FFA0E
:1014D40088F2934208F101081DD801220DF10E0192
:1014E40020461BF033FF4FF000089DF80E305FFAE2
:1014F40088F2934208F1010824D823463A46202171
:101504000020FFF7F5FE054620461BF07FFD284628
:1015140008B0BDE8F0810021304609F0CBFA054659
:101524008DF807000DF10701012220461BF00EFF84
:101534002D0A01220DF1070120468DF807501BF0FA
:1015440005FFC2E70121304609F0B4FA05468DF8DB
:1015540007000DF10701012220461BF0F7FE2D0ABA
:1015640001220DF1070120468DF807501BF0EEFE15
:10157400BBE7A325CBE71825C9E700BF594B0020DB
:10158400F8B51C460E4617460546FFF725FE9DF89E
:101594001810207020461BF097FEFF2804460BD03D
:1015A40003463A4628463146FFF7A2FE0546204642
:1015B4001BF02CFD2846F8BD1825FBE708B500F004
:1015C40029F8BDE808400CF09BBD08B5FFF764F8A6
:1015D4000CF0C0FDBDE8084005F01ABE7047FFF7E7
:1015E40086B8FFF788B80020704738B504460D4622
:1015F400FFF79AF829462046BDE8384008F0FEBABD
:10160400FFF77BB8FFF785B80122002109200DF010
:101614004FBA000008B50F4901200BF0F7FC00F0A9
:10162400B1F900F057F800F08DF8F0EE000A9FEDE4
:101634000A1AB0EE600A00F021F94FF47A710748F3
:101644001BF0CCFABDE808404FF47A7104481BF053
:10165400C5BA00BF741703006F12833A2C3F0020F1
:101664001C3F0020002310B5074C237000F0EAF95A
:101674000649024601200BF0C9FC2046BDE8104093
:1016840041F288311BF0AABA2C3F00202E17030028
:1016940038B500230B4C0C4D237000F0C1F82860C2
:1016A40000F0D4F8094A0346106009492A68012069
:1016B4000BF0ACFC2046BDE8384042F210711BF040
:1016C4008DBA00BF1C3F002050230020542300206B
:1016D4004717030030B585B06C46164B164D0FCB3B
:1016E40084E80F0001230B221946184604F07AFB04
:1016F40001230B221846002104F074FB0F4B104801
:10170400D3F8A014014041F00111C3F8A014D3F898
:101714009C242146024042F00102C3F89C24032287
:101724002846C3F8982404F0E5FB1023AB6005B009
:1017340030BD00BF801703000000014A00C0034011
:10174400FCFFF0FF4CF6FC1230B5184B89B0039344
:1017540008AB23F81C2D04930223ADF8143002AB1C
:101764000693032303A91248ADF81C3004F0F0FCDF
:1017740004460F4D012C13D022460E4901200BF0D4
:1017840045FC9DF808200CB9142A03D00A4901200D
:101794000BF03CFC094901200BF038FC09B030BDCA
:1017A400284604F0C9FB0446E4E700BF80000400B7
:1017B4000000014A90170300A0170300C717030095
:1017C400F0B5154B87B000AF7B6007F1180303F841
:1017D400181DBB600123BB810223073202F4FC7293
:1017E400ADEB020D0546391D0C48C7F810D0BB827D
:1017F4006C4604F0ADFC094E012808D00120227883
:1018040063781C3703EB02232B60BD46F0BD3046E2
:1018140004F092FBF0E700BF800004000000014ADE
:1018240007B50222E52101A8FFF7CAFF50B143F230
:10183400D403019A534364221B0CA3F51673B3FB20
:10184400F2F30193019803B05DF804FB07B502229B
:10185400E02101A8FFF7B4FF58B144F2A443019A70
:10186400534364221B0CA3F592530D3BB3FBF2F3D9
:101874000193019803B05DF804FB0000044B83ED71
:10188400000A044BC3ED000A034B83ED001A7047B2
:10189400383F0020143F0020183F00202DE9F84372
:1018A4002B4D2C4B2DED048BD3ED007AD5ED008A16
:1018B40078EEA77A284C88EEA79AD4ED007A30EE19
:1018C400670AB0EE678AA9EE008A77EEC87AF0EE6E
:1018D400E77A224B17EE900A83ED009A204B83EDB2
:1018E400008A2DF0F1FD1F4B064618680F462DF0B7
:1018F400EBFD02460B46304639462DF03DFE0646CA
:1019040019EE100A0F462DF0DFFD02460B460020AB
:1019140015492DF079FC804618EE900A89462DF081
:10192400D3FD02460B46404649462DF025FE0246AD
:101934000B46304639462DF069FC2EF0F5F8B0EE32
:10194400480A84ED008ABDEC048B2860BDE8F88366
:10195400143F0020383F0020343F0020283F00205F
:10196400243F0020183F00200000F03F07EE900ABB
:1019740008B5B8EE670AFFF791FFFCEEC07A17EEE0
:10198400900A08BDF0B52B4E8FB008AD00240FCEE1
:1019940003270FC596E80300012685E80300264DBA
:1019A400CDE903442846CDE9054407948DF80E702B
:1019B4008DF808608DF809408DF80A408DF80B40C9
:1019C40004F07CFC0221052003F076FF022322466A
:1019D4001A4928468DF8173004F0E6FC23468DF8A2
:1019E40019000090224642F2107128468DF82370A7
:1019F40004F0F2FC04238DF82130A5238DF8250092
:101A040008AA05A928468DF809308DF80E408DF8EE
:101A1400086004F005FD02AA03A9284604F00EFCA0
:101A2400074AD2F8283343F48033C2F828330FB07E
:101A3400F0BD00BFE01703000040004A40420F0021
:101A440000C0034007B500221E4B1A7001221E4B32
:101A5400DA605A6902F4A072B2F5807FF9D11A49AA
:101A6400684604F033FE0098184B1860FFF77EFFB9
:101A7400174B184A1860184B03FB0023B3FBF0F014
:101A8400164B186018682DF0FDFC9FED0A1B41EC05
:101A9400100B2AF0DBFF09A3D3E9002351EC100B50
:101AA4002DF06AFD2EF018F80D4B1860186803B07D
:101AB4005DF804FB666666666666F6BF00000000B5
:101AC400D8227E412C3F00200040004A60230020A1
:101AD40058230020408AF701F0D8FFFF3C3F002044
:101AE4005C230020002307B5CDE9003301236946B8
:101AF4004FF0FF308DF802300EF0EAFE003018BFD0
:101B0400012003B05DF804FB0120704701207047F9
:101B14000120704710B5084C23681B68587909F0F8
:101B24006EFD23681B685879FEF7BEFD00200CF09B
:101B3400A5FC012010BD00BFBC4900202DE9F84FD1
:101B440080460D4614469946164E06F1010A0DB913
:101B5400BDE8F88F102D4FF00D02494650462F4630
:101B640028BF1027FFF730FA0123337000230D48F4
:101B7400F473B37323F0A0FD424601340A495FFABB
:101B840087FBE4B212F8013B11F8010F434002F85D
:101B9400013CA2EB0803DBB25B45F3D3ED1BADB212
:101BA4009046D4E768230020672300202DE9F04FF6
:101BB4004FF00209364D85B003930F9B17460190F1
:101BC4000D220E460146681CBDF838800293FFF7CB
:101BD400FBF949234C46AA462B7028464FEA1823A2
:101BE400AB7385F80F8023F067FD2B7883EA172306
:101BF4002B706B787B406B704FF0000B21E0C4F1CD
:101C0400100CA7EB0B031FFA8CFC9BB2634528BF97
:101C140063463046A11B00EB010C5FFA8CF2A0EB8B
:101C2400060C1FFA8CFC9C451BD31C44E4B29B4459
:101C3400102C1E441FFA8BFB03D1284623F03CFDD5
:101C44000024BB45DBD314B1504623F035FDB9F174
:101C5400010F4FF00004039E47460BD04FF00109DB
:101C6400CAE710F801CB1AF802E08CEA0E0C0AF865
:101C740002C0D0E7029804220549FFF7A5F92246DD
:101C84000421019B029805B0BDE8F04FFFF756BF51
:101C940068230020F7B5099FBDF820400646CDE92A
:101CA40000471D46FFF782FF2CB13346012221462F
:101CB4002846FFF743FF002003B0F0BD2DE9F743AA
:101CC4001E46054688469146BDF828700D4C0346CD
:101CD400394630460122FFF731FF33464A46414632
:101CE4002846CDE90074FFF761FF042221460B98D2
:101CF400FFF7CDF9002814BF7E20002003B0BDE813
:101D0400F08300BF642300202DE9F3410C461546FF
:101D14001E468046084F9918214438460422FFF78E
:101D240053F9CDE9006763192A4621464046FFF777
:101D3400C5FF02B0BDE8F081782300200020704781
:101D44000020704770477047F7B50024094E0A4FCA
:101D54000A4D56F8243003B93B6835F81420084975
:101D640000920120224601340BF050F9292CF0D1C5
:101D740003B0F0BD341D0020DC1D0020B43F002062
:101D8400F817030008B5FFF7DFFFBDE8084000F0CF
:101D9400F1B8000007B50020FEF7A6FDC2B2282A5C
:101DA4000DD8084B53F822300BB9074B1B68074971
:101DB400012031F81210009105490BF027F903B006
:101DC4005DF804FB341D0020DC1D0020B43F00201E
:101DD400F8170300FFF7B8BF7047000038B50020BC
:101DE400FEF782FD04460120FEF77EFD0546054907
:101DF40001200BF00BF9A9B2E0B2BDE8384000F0C5
:101E0400D1B800BF03180300F7B50024094E0A4FE8
:101E14000A4D56F8243003B93B6835F814200849B4
:101E240000920120224601340BF0F0F8292CF0D165
:101E340003B0F0BD341D0020DC1D0020623F0020F3
:101E4400F817030073B502AB03E906000446019DCD
:101E54001AF072FB064620461AF07CFB9DF800003F
:101E64008EB1202C0FD82B78012B37D84FF6FF7565
:101E7400394903EB4313234431F81320AA4202D017
:101E8400013221F813204FF6FF72344B344933F8F2
:101E9400146031F8145096421CBF721C23F81420AD
:101EA40004F0FD02092A31D19A8A898A02448A42BD
:101EB400B4BF9A82998233F81430AB4204D3AE4251
:101EC40002D22046FEF7F1FB0025264BEA5CA24233
:101ED40028D00135112DF9D102B070BD022BD2D119
:101EE4004FF6FF714FF6FF751B4B33F814208A42EF
:101EF4001CBF013223F8142004F1210233F812101C
:101F0400A9421CBF013123F81210BCE71D2CD2D109
:101F14005A8F1118A942BDBF02F1FF3212185A8715
:101F24005D87C8E716F017FD0F4B04461B78834204
:101F340003D8DD210D4800F0FDF94FF6FF710C4A7E
:101F440004EB04142C4432F814308B42C4D0013313
:101F540022F81430C0E700BF06400020B43F002040
:101F6400623F00206F1B0300111D0020EB1A0300C9
:101F7400403F0020522200210148FFF781B800BFF2
:101F8400B43F00205222FF210148FFF779B800BF77
:101F9400623F002008B5FFF7EDFFBDE80840FFF7FA
:101FA400F1BF0000014B23F810107047623F00207E
:101FB400032310B50F4C4FF48062C4E904330E4B75
:101FC4000E49E3610023A16121660D49E01DC4E9C6
:101FD40019120C49A3626362E3622367E3666367D1
:101FE40022622DF0DBFF084920462DF0D7FF202385
:101FF400A37110BD8C4000207C270020801B0300AF
:102004007C230020891B03008D1B03002DE9F84F5E
:102014001F4B16461A7881468A4698460AB9FFF736
:10202400C7FF182707FB09873D6FD7F86CB05D45DC
:102034002BD9BC6E796E641BB44228BF3446294444
:10204400504622462DF097FFBB6E2544AB4208BF95
:102054000025A244361BABEB050B5E4528BF5E464C
:1020640056B1182303FB0983596E3246294450465E
:102074002DF081FF3444354424B1182303FB09882F
:10208400C8F870502046BDE8F88F0024E3E700BF8D
:102094008C40002010B50B46EFF311844FF0200163
:1020A40081F311881946FFF7B1FF84F3118810BD3D
:1020B4002DE9F84F144D9B462B788146884692466D
:1020C4000BB9FFF775FFEFF3118C4FF0200181F38B
:1020D4001188002018236F6903FB0054666E2EB12B
:1020E40001308742F8DC4FF0FF3009E08742FADD27
:1020F400C4E91898C4F868A02667E666C4F874B002
:102104008CF31188BDE8F88F8C400020FFF750BF96
:1021140070B54FF060441A4B00261A68194D42F00E
:1021240001021A60DA680C2042F08072DA60164B01
:10213400C4F8B03F0223C4F8006EC4F8806EC5F83A
:10214400F03003F07BFA114B00F5D52000F2FC408F
:10215400B0FBF3F00E4A0F4B01382861C4F8406E0F
:102164001A600D4BC4F8803E4FF48073C5F80433F5
:10217400D4F8003E43F48073C4F8003E70BD00BF41
:10218400F0ED00E0000004E055CEACC5F8590D00B8
:10219400FF030040001000E00D00010010B5012411
:1021A4000E4B00201C6003F0D5FD234604220321BE
:1021B400002003F017FE20460EF09AF8FFF7A8FF60
:1021C4000EF097F8FFF7A2FF234640220449054882
:1021D400FFF76EFF044B1860C00F10BD44D40340DA
:1021E4007C2B0020941B0300E01D0020024B186888
:1021F400003018BF01207047F0ED00E0D123054AFC
:10220400037013784170090A8170591CC3701170EE
:1022140004207047BC2B00202DE9F74F354E0746AC
:1022240033681C5C032C63D9DFF8CC8015F0C0FF45
:102234004FF6FF7A0025C1460534E4B20190D8F880
:1022440000204AB1AC4207D915F0B2FF019BC01A75
:1022540080B2B0F5FA7F05D9601B18BF012003B026
:10226400BDE8F08F002D3DD0012D1DD14FF0020BA4
:102274003268D55D4FF06042D2F8801ECB0711D58D
:102284001146D9F80C0040F08070C9F80C00D1F860
:10229400000E40F48070C1F8000E086A0028F0D0E7
:1022A40082F820505D46CAE7E21E05F1010B954213
:1022B4005FFA8BFB02D15FFA8AF5DBE7A21E954237
:1022C40002D1CAF30725D5E7621E95420ED0A91E96
:1022D400C9B238461BF06EF851460546FEF7E4FDD8
:1022E4008246C7E75B254FF0010BC3E75D25C1E7D5
:1022F4000120B4E7C81C0020F0ED00E010B50B4B42
:1023040090B0402269461868FFF7C4FE58B1C1B2C4
:1023140068461AF0D9FF0446014612200DF094FCD9
:1023240020461AF073FE10B010BD00BFE01D00205F
:1023340042DE704738B504460D4600F0D1FC03F088
:1023440064FC294620460DF04BFC2B4622460549E9
:10235400012006F0D9FF29462046BDE83840FFF7A2
:10236400E7BF00BFA41B03006D4B2DE9F0415A6881
:102374006C4CA2655A6AE2656B4AD2F80012216677
:10238400D2F8042262669A6AA266DA6AE2661A6B74
:1023940022675A6B6267A26BDB6B12F0040FA367B0
:1023A400D4E90F5318BF1D4615F0E6FE00228542FE
:1023B4000346606522655DD35C4A95425AD8AA6992
:1023C4006264E969A164B4F85810C1F308010629EC
:1023D40054D157498A4251D356498A424ED2118820
:1023E4004DF64262914249D140F201706268C4F8EC
:1023F4009420A268C4F898204F4A5049934238BFA9
:1024040013460A468B423CD3D31AE3640023C4E93F
:102414001F33C4E92133C4E92333484E444FDFF862
:1024240014C1AE4233D8D4E91FC7D4E92165D4E935
:1024340023124FF0000E013BDBB2FF2B42D1BEF161
:10244400000F05D0C4E91FC7C4E92165C4E92312FC
:10245400B4F85830C3F30803052B57D03CD8032BEA
:1024640047D0042B58D040F60722013B4B2B98BF92
:10247400104640E000221D46C4E911224FF42060BA
:10248400BAE71E68B6F1CD3FBED10433BAE756F8B9
:10249400042DBA42C5D36245C3D2D107C1D50021A8
:1024A40004EB010EDEF87CE09645BAD0043118291D
:1024B400F6D10BB9052301E0013BDBB204EB830148
:1024C400CA67AEE7E0464FF0010EBC4637462E46DB
:1024D4000D4611464246AEE70C2B1AD03B2B0CD0CE
:1024E400062BC0D140F60423B0F5206F08BF184670
:1024F40001E040F60120BDE8F081114B9B6913F027
:10250400020F40F2025318BF1846F4E740F60320C6
:10251400F1E740F60520EEE740F60220EBE700BFC6
:1025240000ED00E00000002000E100E0A01A00201F
:102534004C030000D8FF02009C000020C01A0020B9
:102544000080014A10B504F0B9F9044604F0AEF96C
:102554000022012101FA02F3234014D01B4B33F86B
:1025640012301B4A062B13D040F207218B420DD1A7
:10257400184919480C68844208D14CF23C334B800A
:102584000B88138012E00132102AE3D1104AF8E7D5
:102594004FF20F010F4B5888884214D11988B1F5B6
:1025A400406F10D211804CF23C325A80084B1A888A
:1025B40040F201739A4201BF084B094AD2E9000173
:1025C400C3E9000110BD4FF4C061EBE7B81B030081
:1025D400C82B00200000002007020FF0C02B0020B1
:1025E40094000020014B1888000A7047C82B002073
:1025F400014B1888704700BFC82B00202DE9F04F0D
:102604004D4C0546A36BD4F850B05A0747BF00277A
:10261400B846D4F84CB0D4F85480D4F840A05DBF88
:10262400464FD4F83CA0DFF83C91DFF83C9113F01E
:10263400080F434B434A18BF1A46B7EB08061FBF9F
:102644006421730801FB0B33B3FBF6F387B01CBFA3
:102654009BB205933C494B46CDE9017ACDF8008005
:1026640008BF059601F08EF8B3B2CDE900931FFAC6
:102674008BF2059B3549284601F084F8A36B5B0770
:102684000AD49C3E5E4507D1626D314B9A4203D217
:102694003049284601F076F8BA4501D8C24504D23B
:1026A4004A462D49284601F06DF8284606F026FED4
:1026B400236E0BB9636EBBB32849284601F04DF86D
:1026C40000260127DFF8A480DFF8A490226E07FA21
:1026D40006F3134207D058F8262013781BB1494655
:1026E400284601F03AF80136202EEFD100260127C2
:1026F400DFF87880DFF87890626E07FA06F3134209
:1027040009D008EB8603D3F8802013781BB149461F
:10271400284601F022F801361D2EEDD1284607B0D7
:10272400BDE8F04F01F028B828460D4907B0BDE8D0
:10273400F04F01F027B800BF00000020C01A0020AD
:10274400BF1E0300C61E0300CE1E0300FC1E0300B2
:102754009C000020351F0300611F03007F1F03003E
:10276400AE1F0300BA1E030051360300C41F03004A
:10277400584403002DE9F8430446FFF739FF40F6B7
:102784000123984239D010D840F2025398421DD008
:1027940040F20173984224D040F20153984213D17D
:1027A4006549204600F0EEFF22E040F603239842FC
:1027B4006CD03DD340F60423984200F09C8040F650
:1027C4000523984200F0B580BDE8F8835B492046B4
:1027D40000F0D8FF5A4B5B495A6C204600F0D2FFF8
:1027E40006E0574A5849D2E92523204600F0CAFF9B
:1027F4002046BDE8F84306F081BD514D53492046BB
:1028040000F0C0FF95F86C309F0703D5504920466F
:1028140000F0B8FF95F86F305E0603D54D492046A9
:1028240000F0B0FF95F96F30002BE1DA4A49B8E7C0
:10283400434D4A49204600F0A5FF95F868309807B3
:1028440004D06A6C3F49204600F09CFF95F968303B
:10285400002B04DA6A6F4249204600F093FF0026F9
:102864000127DFF80881DFF81491AA6E07FA06F34E
:10287400134207D058F8262013781BB14946204646
:1028840000F080FF0136082EEFD1B1E72C4D354919
:10289400204600F077FF2B496A6C204600F072FF57
:1028A40095F86930590703D52F49204600F06AFF8F
:1028B40095F96930002B04DA6A6F2949204600F043
:1028C40061FF0826294FDFF8B480AB6EF340DA07C6
:1028D40007D557F8262013781BB14146204600F04F
:1028E40051FF0136102EF0D195F86830002B7FF49B
:1028F4007FAF1F4955E7124D1E49204600F042FFA5
:102904006A6C1049204600F03DFF1026174FDFF88F
:102914006C80AB6EF340DB0707D557F8262013789D
:102924001BB14146204600F02DFF01361A2EF0D18E
:102934005EE711494BE700BF491C0300861C0300F6
:1029440000000020B61C0300CF1C0300E91C030098
:10295400011D03003B1D03006E1D0300AA1D03009F
:10296400CF1D0300F31D03000A1E0300D81B030040
:10297400501E0300801E0300991E0300EB1D03007C
:102984002DE9F84F06460025154C164FDFF85C80FC
:10299400DFF85CA023785FFA85FB0BB9BDE8F88FFC
:1029A40057F8043B22461049304600F0D6FE227800
:1029B40004F1010982B9627882B10BF003010329A1
:1029C4000CBF41465146304600F0C7FE304606F083
:1029D40095FC01354C46DDE74C46E8E74146F2E715
:1029E400B820030004000020401C03008E000300F4
:1029F4001B39030000F00CB800F00AB800F008B866
:102A040000F006B800F004B800F002B800F000B816
:102A140072B61EF0080F09D01EF0040F0DD0DFF8B7
:102A240050E0AEE8FF1F6FF002000CE0DFF840E07A
:102A3400AEE8FF1F6FF00E0005E0DFF834E0AEE80B
:102A4400FF1F6FF006006946EFF309828EE8070066
:102A540086460848084C854501D3A54501D384F32F
:102A64000888FFF781FC84F3088815F061FB0000F7
:102A740004000020A0110020C01A0020FFF7C6BFE8
:102A8400704770477047704700F07E63B3F17E6F04
:102A940070B505460E46144616D104F0AFFF18B1C2
:102AA4009A210D48FFF746FC22463146C5F30B0038
:102AB40003F0C0FF044604F0ADFF5CB19D21BDE806
:102AC40070400548FFF736BC520815F0CFFA08B13C
:102AD4008F21F4E770BD00BFDC27030037B57F2AE0
:102AE40014BF154600254BF234629142044619D1B5
:102AF4007F2241F2020168460823FFF7EFFF082214
:102B040025496846FEF7C3FA30B908237F2241F20B
:102B1400F0116846FFF7E2FF082269462046FEF7F7
:102B240053FA09E041F2F01291421AD11B490138DB
:102B34008A6CC96C1D1F0BB903B030BD013B9D42AB
:102B440000F8012F4FEA1222F5D1002203349A42F1
:102B5400F2D00132042A04F8011F4FEA1121F6D100
:102B6400EAE701F47042B2F5805F07D1C1F30B04C8
:102B740004F17E649AB203FB0541D0E701F460429C
:102B8400B2F5005FD8D1C1F30B0405499AB22144D0
:102B940003FB0511C3E700BF562803000080E00FC4
:102BA40000E0070070B5054616461C46DBB14BF243
:102BB4003463994210D1082C28BF08247F2241F2A3
:102BC40002012346FFF78AFFA2B207492846FEF70F
:102BD4005EFA40B941F2F011234632462846BDE878
:102BE4007040FFF77BBF70BD562803002DE9F74303
:102BF4000446E0070F46154603D5DD213448FFF7A8
:102C040099FBE90703D5DE213148FFF793FB04F470
:102C14007043B3F5805F3ED1C4F30B0404F17E64CA
:102C24006B1E2C4A23449342264603D9E3212848A9
:102C3400FFF780FBDFF8989006EB050846453DD189
:102C4400A2070ED04FF6FF7337F8022B02A943EA0E
:102C54000243A01E41F8043D0422FFF715FF02348D
:102C6400023DAB070ED0023D25F00103FB5A02A939
:102C74006FEA03436FEA1343042241F8043D6019E9
:102C8400FFF702FF25B12A4639462046FFF7FCFE2E
:102C940003B0BDE8F08304F46043B3F5005F05D1ED
:102CA4000D4BC4F30B041C442646C3E7EA21084831
:102CB400FFF740FB6FF00F060024BBE716F8013B5B
:102CC400FF2BBBD0F4214846FFF734FBB6E700BF27
:102CD400DC270300FF1FE00F00E00700FFF78ABEB8
:102CE400014804F0CDB800BF0080014AA52803D1F3
:102CF4000021024804F0B5B8704700BF0080014AC3
:102D0400024B586800F00100704700BF0080014A80
:102D1400024A536A002BFCD1704700BF0080014A6D
:102D240000207047002070477047000007B572B656
:102D340002F06BFF894B8A495B6940228B60002358
:102D44000B764B768B76F023CB760B774B778B77A2
:102D5400CA77802281F8202081F82130E023602086
:102D640081F822307F4B81F8232083F8002383F8F5
:102D7400012383F8022383F8032383F8042383F8CD
:102D8400052383F8062383F8072383F8082383F8AD
:102D9400092383F80A2383F80B2383F80C2383F88D
:102DA4000D2383F80E2383F80F2383F8102383F86D
:102DB400112383F8122383F8132383F8142383F84D
:102DC400152383F8162383F8172383F8182383F82D
:102DD400192383F81A2383F81B2383F81C2383F80D
:102DE4001D2383F81E2383F81F2383F8202383F8ED
:102DF4002103202083F8222383F8232383F8242328
:102E040083F8252383F8262383F8272383F82823AC
:102E140083F8292383F82A2383F82B0383F82C03CC
:102E240083F82D2383F82E2383F82F2383F830236C
:102E340083F8312383F8322383F8332383F834234C
:102E440083F8352383F8362383F8372383F838232C
:102E540083F8392383F83A2383F83B2383F83C230C
:102E6400CB6823F4E0631B041B0C43F0BF6343F4FF
:102E74000133CB604B6943F010034B614FF4E02303
:102E84004B6204F071F9FFF75DFBEFF308834FF039
:102E9400CD31354A043B93425DD2344A002192B28B
:102EA4003348FEF7EDF862B6684603F0EBFD314BAC
:102EB4009B6DDB0318D4304A136823F4FF0323F417
:102EC400FE4343F4BC1343F4A063136052F8043C80
:102ED40023F4704343F4404342F8043C52F8043C66
:102EE40043F4E06342F8043C9DF80130012B0FD118
:102EF4009DF8003063B94FF000531B681F4B1B68EB
:102F04001F4B1B681F4B1B681F4B1B681F4B1B6809
:102F14001F4AD2F8803043F00303C2F88030022203
:102F24004FF040231A6704F09DF801F0E5FA0023FE
:102F340000938DF80430012368468DF8033002F0C5
:102F440000FF00F027F915F045F912480DF0DAF901
:102F540003B05DF804FB1960043B9CE754000000D7
:102F640000ED00E000E100E0601100208C100000A2
:102F7400A000002000C0004034C0004000400020F9
:102F84000080002000C0002000000120004001203B
:102F940000800040504C030040F2016015F0C8B8B6
:102FA400FEF7D0BE08B500210B20FEF7C9FEBDE830
:102FB4000840FEF7C8BE032000F078BA08B5FFF752
:102FC40011FB044B0B289ABF00B203EB8000184698
:102FD40008BD00BFA629030008B5FFF709FB044B91
:102FE400C0F30F2253F82230C0B203EB800008BDB7
:102FF4007029030010B5FFF7F5FA0446FFF7F8FA55
:10300400C0B228B9012C24D164F07F04E4B216E0E4
:10301400072CF9D801A353F824F000BF4330000073
:103024000D30000041300000473000004730000000
:103034004B3000004F30000053300000092420467C
:1030440010BD0224FBE70324F9E70B24F7E7062469
:10305400F5E70446F3E700BF07282DE9F84F0446D7
:103064000F462DD0082808BF022421460120FDF771
:103074005CFBFFF745FE651ED5F1000848EB05082B
:1030840000B3012C1ED1A520FFF730FE2646EFF336
:103094001089012383F31088EFF3118A4FF0000B9A
:1030A4008BF31188354D404606F096FB631EC5F838
:1030B40000B0042B59D8DFE803F00E4D4D515500F4
:1030C4000324D2E7FFF71CFE18B1FFF721FE002608
:1030D400DDE70646DBE72A4A136923F0040313619C
:1030E40030BF284AD2F82434D2F8202413409BB2AB
:1030F400254A2B60D2F80011480102D51168490114
:1031040006D4D2F80011880105D51268910102D5C0
:1031140043F480332B601C4BD3F80021520506D5B1
:103124001B685B0542BF2B6843F400332B601EB160
:103134000121164803F095FE404606F06DFBCFB121
:103144008AF3118889F310882146BDE8F84F0020DE
:10315400FDF7EBBA012002F0C7FDC2E7012002F03F
:10316400D7FDBEE702F0D6FDBBE788210848FFF78C
:10317400E1F8B6E787F31088E6E700BFD42B002018
:1031840000ED00E000C0034000E100E00080014ADF
:10319400D629030042F22041044AD2F820341B0C01
:1031A4001B045350024A1360704700BF00C0034021
:1031B400D02B00200021FFF74FBFFFF7FBBF00001B
:1031C4002DE9F04F89B00DF091F80746002840F042
:1031D400DD806F4E6F4D3168286814F093F9044612
:1031E400002827D033683C46D3E900019A69126865
:1031F4009047336804A89B699B689847336802200A
:103204009B69DB689847326805985368E7B2B3FB5B
:10321400F0F3BB42916904F1010442D8CB68002069
:10322400984733689B695B6898473168286814F04D
:1032340069F904460026DFF88891002C53D1564BD7
:103244004FEA8608F35C002B31D1A246534BF35C62
:103254000193534B03EB080B019B5FFA8AF7BB42C4
:10326400286853D84F4BF35C002B3CD04C4B019F48
:103274009844FBB27E2B286835D8D8F8003003AACE
:1032840007EB030A514602AB14F076FB48452AD0FB
:103294005146286814F0B6FB013704460028E8D0EC
:1032A40021E012680B6907FB00209847ABE73C4B11
:1032B40003AA53F82670286802AB394614F05CFB65
:1032C400484507D078B9039B012B0CD039462868B0
:1032D40014F098FB344B394653F8083028681A68C0
:1032E40014F074FA04460136242EA6D1B4FA84F3F9
:1032F4002E4A5B0913702E4B9C4241D02DD8002CD2
:1033040032D0013B9C423FD0C5242DE0DBF8003095
:1033140003AA1F44394602AB14F02EFB48450AD0D9
:1033240010B10AF1010A97E7039B8BB9214B029A6A
:10333400F35C9A42F5D01F4B1B4A9B5D52F8082060
:103344003946286814F0B4F90028EAD0044689E71D
:103354003946286814F056FBEDE7174B9C4211D010
:1033640004339C42D0D1C1242B681B7C23B14FF47D
:1033740089711248FEF7DEFF204609B0BDE8F08FE0
:10338400C324F1E7C424EFE7C224EDE7C624F3E73E
:103394002C1E0020281E0020A8060300F4050300AC
:1033A400F0060300CC06030018060300D82B002007
:1033B40002E000F08007030004E000F0522A03005A
:1033C4000BE000F0232970B506460C4615461AD8C2
:1033D400144A127822B3144A1068144A52F821107D
:1033E400134A125D3AB1324614F03EFAC0B1BDE858
:1033F4007040FDF768BD7F2D08BF00253246294483
:1034040014F0A0F9F2E7FF2903D9BDE87040FFF7F3
:10341400C9BB40F24511BDE870400648FEF78ABFBB
:1034240070BD00BFD82B0020281E0020F00603002A
:10343400A8060300522A03002328F8B504460D46C3
:10344400164619D81449097829B31449144F086841
:10345400144951F824103C5D3CB1126814F0B6F9DB
:10346400C8B1BDE8F840FDF72EBD7F2D08BF00258B
:10347400294414F01DF9F3E7FF2805D91A4631460B
:10348400BDE8F840FFF7B2BB4FF4BC71BDE8F840AB
:103494000548FEF74FBFF8BDD82B0020281E00209A
:1034A400A8060300F0060300522A030008B5084BDF
:1034B4001B7863B1074B002253F82010064B1868A1
:1034C40014F012FA18B1BDE80840FDF7FCBC08BDC1
:1034D400D82B0020F0060300281E002070B51646E5
:1034E40085180AB9304470BD01F00F030A2B34BFAC
:1034F40030243724013A2344090905F8013DD2B2A6
:10350400EFE70000F0B5F9B100281CDA2D23B0F183
:10351400004F137000D04042012115E0801B864209
:10352400ECB205F10105F9D904B927B101274D1C05
:1035340030345454E9B20133092B09D1303050549A
:103544000131C8B2F0BD002100231F46DFF808C0D6
:103554005CF823600025E2E7C82A03002DE9F04F58
:103564004FF0000B95B002AC81468A4617461D46C3
:103574005E46A0463B7863B902ABE41AE4B2224645
:1035840019465046C847002840F093803444E0B2BE
:1035940090E0252B13D0BBF1000F14D1237001341C
:1035A40012AB9C426DD3A4EB0804E4B2224641461C
:1035B4005046C84700287CD12644F6B260E0BBF1EF
:1035C400000F00D101373B78632B00F092801BD8A9
:1035D400392B09D8302B80F09E80002BCCD0252BA2
:1035E40051D04FF0000BDBE7582B00F08B80622B9F
:1035F400F7D14FF0000B2B6801936B680093009B8D
:103604009B4543D10835ECE7702B1ED017D8642BAB
:1036140001D06C2BE5D16C2B05F1040B28686CD11F
:103624007B78752B14BF0121002101D0642B00D1BC
:1036340001372246FFF766FF04445D46D1E7752B48
:10364400E9D0782B5ED0732BCBD1A4EB0804E4B281
:10365400224602A9504605F1040B2D68C84740BB19
:103664002644F6B2C4B22B5D0130002BFAD12246B7
:1036740029465046C847E0B95D4683462644F6B21B
:103684004446013776E723700134AAE7019B2046BC
:1036940013F80B100222FFF721FF12AB98420446E5
:1036A4000ED3A0EB0804E4B2224641465046C84774
:1036B40018B1002015B0BDE8F08F26444446F6B298
:1036C400009B013B5B4582BF20232370013412AB76
:1036D4009C420BD3A4EB0804E4B222464146504674
:1036E400C8470028E5D126444446F6B20BF1010B45
:1036F40085E72B6804352370C6E7752B0CBF0021C2
:10370400012196E7204602222978FFF7E7FE05F11A
:10371400040B044691E77A7802F0DF02582A19D1A3
:10372400322B07F1010B09D10422204629882F1DD1
:10373400FFF7D4FE3D4604465F4652E7342B09D1D9
:103744002F1D2D680422290C2046FFF7C7FE0422F2
:10375400A9B2EDE74FF0010B22E70EB403B503AABB
:1037640052F8041B019206F0EDF8C0B202B05DF805
:1037740004EB03B0704700000149FFF7EEBF00BF40
:103784008E0003000EB433B505AA52F8041B054697
:10379400019206F0D7F804462846FFF7EDFFE0B2A1
:1037A40002B0BDE8304003B0704708B506F0CAF86F
:1037B400C0B208BD2DE9F04F9B46584B85B01B782D
:1037C400064689461546109F9DF844A0DDF85080B2
:1037D400002B00F09280072A00F291800E9B002BB0
:1037E40000F08D800F9B002B00F08980129BB3F5B5
:1037F400006F00F38480012801D1002F7FD0484B53
:1038040003EB05131B7B002B7BD0464C10220021BD
:1038140068462CF0BBFB04EB45141022B9F1000FF1
:103824005CD1494620462CF0B1FBA37843F0100349
:10383400A370E37843F03003E370BAF1000F03D1CF
:10384400DBB243F00303E37036496A01129B885AE2
:10385400013B63F30E100E9B01EB020C8852CCF873
:1038640008300F9B9DF84C10CCF804309CF80330C2
:10387400012E61F38303CDF800B08CF8033042D1FC
:1038840013230CF1100ECCF80C309CE80F008EE8DA
:103894000F006FF00301DCF81C20B9F1010F61F394
:1038A4009F02CCF81C20CCF8147004D10F9BCCF8E8
:1038B4000470CCF81830002719492A018B1841F8F4
:1038C4000280159A28465A609F605E7322466946B4
:1038D40002F052FF384605B0BDE8F08F00212046C3
:1038E4002CF054FB1023A3700323E370BAF1000FF0
:1038F400AAD1DBB243F03003A5E70B48EBE70B4852
:10390400E9E70B48E7E7B8F1000FD4D19CF802309F
:1039140068F304138CF80230CDE700BF5C2D00205F
:10392400DC2B00205C2C0020028000F0018000F0E1
:10393400078000F038B5104B05461B78BBB1C0B109
:1039440002F06BF900230D4901EB0312147B3CB91F
:103954002B6001231460137302F065F9204638BD0F
:103964000133082BF0D102F05EF90548F7E705486A
:10397400F5E70548F3E700BF5C2D0020DC2B0020B1
:10398400048000F0028000F0018000F038B502F0FD
:1039940044F9002305460A4AD1180C7B5CB910335C
:1039A400802BF9D102F09AFE064B28461C7002F0D7
:1039B4003AF9204638BD284602F035F90248F9E7BD
:1039C400DC2B00205C2D0020058000F00D4B10B591
:1039D4001B78044693B1072812D802F01EF90A4B4B
:1039E40003EB04131A7B2AB100241C7302F01BF9A5
:1039F400204610BD02F017F90448FAE70448F8E736
:103A04000448F6E75C2D0020DC2B0020068000F043
:103A1400028000F0018000F0164B13B518680023F3
:103A240001908DF8043002F0F8F8134B1C7824B19F
:103A340002F0F9F8114802B010BD01221A7002F028
:103A4400F2F80F4B1C731C7783F82C4083F83C402E
:103A540083F84C4083F85C4083F86C4083F87C40E6
:103A640004230DEB03008DF8073002F05BFE2046C3
:103A7400E1E700BFEC2A03005C2D0020038000F086
:103A8400DC2B002010B588B00E9C009207940D9C8E
:103A9400024606949DF8304005940B9C04949DF8CE
:103AA400284003940024CDE9013420460B462146E6
:103AB400FFF780FE08B010BD10B588B00E9C0092D0
:103AC40007940D9C024606949DF8304005940B9C87
:103AD40004949DF8284003940024CDE90134204641
:103AE4000B460121FFF766FE08B010BD08B50A4B6E
:103AF4001B785BB107280BD8084B03EB00131B7B27
:103B040043B1002102F0FEFD002008BD0448FCE79B
:103B14000448FAE70448F8E75C2D0020DC2B002079
:103B2400028000F0018000F0078000F008B50A4B25
:103B34001B785BB107280BD8084B03EB00131B7BE6
:103B440043B1012102F0DEFD002008BD0448FCE77A
:103B54000448FAE70448F8E75C2D0020DC2B002039
:103B6400028000F0018000F0078000F008B50A4BE5
:103B74001B7853B107280AD8084B03EB00131B7BAF
:103B84003BB102F049FE002008BD0548FCE70548AA
:103B9400FAE70548F8E700BF5C2D0020DC2B002085
:103BA400028000F0018000F0078000F00D4B1B78CC
:103BB40093B1072812D889B10B4B03EB00131B7B7D
:103BC40073B10A4BDA6A012303FA00F010401ABFFA
:103BD40000200B700870704705487047054870470F
:103BE400054870475C2D0020DC2B002000000440B9
:103BF400028000F0018000F0078000F00B4B10B54C
:103C04001B780C4663B107280CD859B1084B03EB59
:103C140000131B7B43B102F011FE2060002010BD95
:103C24000448FCE70448FAE70448F8E75C2D002060
:103C3400DC2B0020028000F0018000F0078000F0FF
:103C44002DE9F843174B1F6D5B6D1F4000D5FEE750
:103C540001260025144CDFF85480DFF854903742D5
:103C640017D02368C8F800609BB1A168626801316D
:103C7400A16028469847637B012B0AD148B909EB18
:103C84004513197B1A7F60F3410160F341021973F4
:103C94001A770135082D4FEA460604F11004DED1E7
:103CA400BDE8F88300000440DC2B002050200440D1
:103CB4005C2C002070B504460125084E04B970BD83
:103CC40094FAA4F0B0FA80F005FA00F324EA0304AD
:103CD40056F82030002BF1D09847EFE7602D0020F4
:103CE4004FF00072044BC3F880211A604FF08062D9
:103CF400C3F880211A60704700E100E038B504463B
:103D04000D4601F08AFF034B43F82450BDE83840C8
:103D140001F089BF602D0020084BD3F82404D3F8A8
:103D24002024104042F2204220F42A5020F02A009D
:103D34004004400C9850FFF7BDBF00BF00C00340D3
:103D4400084BD3F82404D3F82024104042F2204234
:103D540020F4AA4020F055000004000C9850FFF70E
:103D6400A9BF00BF00C00340104A30B513684161C9
:103D74001546ABB91060836011E0091B9C68416172
:103D84001A467CB123465C698C42F6D9002CF4D0E7
:103D940052B19060836013B15A69511A596130BDB0
:103DA4000022F0E72346F4E72860F3E7B42D00206F
:103DB40010B500F0B1FA094B094A196831B113681A
:103DC400C41A4B69A34203D31B1B4B61106003E06D
:103DD400C01A002310604B6110BD00BFB42D002039
:103DE400A42D0020074B10B51B6802205C69064B0C
:103DF4001B681C4400F0C4FA2046BDE8104000F0E3
:103E040093BA00BFB42D0020A42D002070B59DF8F6
:103E14001450164605710025049A8560BDF81850A3
:103E24000446C5800260C0E903360D4629B96161C4
:103E34000BB11146984796B1354601F0EEFE0646A1
:103E4400FFF7B6FF29462046FFF78EFF054B1B6898
:103E5400A34201D1FFF7C6FF304601F0E4FE002083
:103E640070BD00BFB42D002000210C4A13687BB143
:103E740083420AD1836879B18B6083681BB15A6924
:103E840041690A445A610020704719469B68EEE76D
:103E94000028EFD0022070471360EEE7B42D002015
:103EA40070B501F0BAFE114D06462C78CCB9104B12
:103EB4001C60104B1C60104B1C8000F0F3F90120B7
:103EC40000F05EFA00F0AAFA0C4B0246186040F2C9
:103ED400E73123460A482BF077FE0A4B186001238A
:103EE4002B70304601F09FFE002070BDA02D0020F5
:103EF400B42D0020A42D0020AC2D0020B02D0020D6
:103F040018FCFFFFA82D00202DE9F0410546F8B16B
:103F140001F083FE0F4F0646FFF74AFF2846D7F805
:103F24000080FFF7A1FF044628B1304601F07BFE74
:103F34002046BDE8F081A8453B6803D123B1FFF7D3
:103F440051FFF2E7002BF0D1022000F025FAECE754
:103F54002224EDE7B42D0020F0B50D4685B01646B9
:103F64001F46044680B1FFF7CFFFBDF82C30002276
:103F740002939DF828302946CDE900732046334644
:103F8400FFF744FF05B0F0BD2220FBE738B50C462F
:103F9400054698B191B100230B7001F03EFE01215A
:103FA400074B1B680BB122781AB101F03CFE0020CC
:103FB40038BD9D420CBF21709B68F3E72220F7E7D0
:103FC400B42D0020F0B51F46002387B00D461646D9
:103FD4008DF817300446A0B10DF11701FFF7D6FF95
:103FE4009DF817207AB9BDF83430294602939DF81C
:103FF40030302046CDE900733346FFF707FF07B0A2
:10400400F0BD2220FBE70320F9E70000F8B50C46D9
:104014000646C8B1C1B101F000FE0546FFF7C8FE6F
:1040240073692360134B1B68B3420FD023B928462E
:1040340001F0F9FD03201CE0596922689B680A44D9
:104044002260F1E700230FE0222012E0276800F04D
:1040540063F9094E3368C01A8742F3D900F05CF95A
:104064003368C01A23681B1A2846236001F0DBFD5D
:104074000020F8BDB42D0020A42D002070B501F05F
:10408400CCFD064600F048F9094B05461C88012082
:10409400A4B200F099F918B100F03EF905460134D4
:1040A400304601F0C0FD0022214642EA050070BD01
:1040B400AC2D00200A4B10B51B680C4683420CD370
:1040C400084B4FF47A7219680023A0FB01012BF00E
:1040D4007BFD01302060002010BD2120FCE700BFE3
:1040E400A82D0020B02D0020104B10B51A684FF4F5
:1040F4007A73A0FB0301A2B1531E134211D1B2FA89
:1041040082F2C2F11F02C2F12004A2F1200301FADB
:1041140004F420FA02F2224321FA03F342EA0300F0
:1041240010BD00232BF050FDFAE700BFB02D002096
:1041340000000000F8B516461BA3D3E900238B4208
:1041440008BF82422AD3174B1A684FF47A73A0FB34
:10415400034503FB0155C2B1531E13EA020014D1F7
:10416400B2FA82F2C2F11F02C2F12007A2F12001C9
:1041740024FA02F305FA07F73B4325FA01F10B434E
:1041840025FA02F2C6E90032F8BD0023204629468A
:104194002BF01AFDC6E900010020F5E72120F3E722
:1041A400AFF30080B02D0020EFA7C64B3789410044
:1041B400C2072DE9F84F04460BD5374A138801335B
:1041C4009BB21380FFF7F4FD344B1B680BB1FFF770
:1041D40009FEA3075DD500F09FF8314E0746356808
:1041E4004FF0000A451B01F018FD8046DFF8AC9043
:1041F400D9F80040002C48D06369AB4209D95D1B53
:1042040065613760FFF7EEFD4046BDE8F84F01F009
:104214000ABD23462A4637605969914209D818795C
:1042240094F804C0521A844588BF1C469B68002B2E
:10423400F2D1404601F0F7FCD4F81480C4F814A07D
:1042440001F0EBFC83462046FFF70EFE584601F0D2
:10425400EAFC23694BB101F0E0FC83462169204666
:10426400FFF782FD584601F0DEFCE36813B12168D4
:104274002046984700F050F84744ED1B0446054497
:1042840001F0CBFC27468046B2E7022000F084F818
:10429400BAE7BDE8F88F00BFAC2D0020B42D002094
:1042A400A42D00201FB50024184B18689A8802908A
:1042B40053F8060FADF80C201B79009002A88DF876
:1042C40004308DF808408DF80C4002F041FB69463B
:1042D40001208DF8004002F0FFFA4FF090431F21B7
:1042E4009A6922F01F029A61094A11609A6A12F0CF
:1042F4000802FBD11A62012002F008FB4FF480622D
:10430400044BC3F880211A6004B010BDF02A0300E6
:104314001420004800E100E04FF090439A6A12072D
:10432400FCD4186A704700004FF09042936A190752
:10433400FCD4136A116C5269120704D4CA1A022AF3
:1043440001D899420ED1C21A012A98BF981CB0F123
:10435400FF3F28BF01304FF0904318649A6942F040
:1043640008029A61054A13783BB14FF09041CB6B38
:1043740043F00203CB63002313707047E81D002051
:1043840082074FF0904200F00103916948BF43F067
:1043940008030B4393617047830700F001020AD5B9
:1043A4000121084B42F0080219704FF09041CB6B89
:1043B40023F00303CB634FF090418B6923EA02039C
:1043C4008B617047E81D00204FF0904301285B6922
:1043D40004D0022805D1C3F3C000704703F00100E4
:1043E400704700207047000010B501F016FC4FF034
:1043F400904304465B691A07074A03F0010003F07F
:104404000D0348BF40F002001360FFF7D1FE2046C1
:10441400BDE8104001F007BC142000481B2001F047
:104424000DB90000002211462D48F0B503682D4D4A
:1044340054592CB11E68AC18002E3DD123460121DD
:104444000832282AF4D101B1036000221446264917
:10445400264E0B6895592DB11F68B518002F32D11F
:104464002B4601240832282AF4D104B10B600068D9
:104474000368002B2FD04FF04022936F007923F074
:10448400FF7323F4803343EA00439367184B4FF0E0
:10449400004209681A600B68FBB14FF04022936F29
:1044A400097923F4FF7323F001030B439367104B43
:1044B4004FF080421A60F0BD1E792779B74284BF5D
:1044C40023460121BCE71F7995F804C0BC453CBFD5
:1044D4002B460124C6E7074BD9E7064BE8E700BFA4
:1044E400BC2D0020CC2D0020C02D0020F42D002058
:1044F400685000406860004010B5012228240F4B2A
:1045040000211A700E4822462BF040FD224600215D
:104514000C482BF03BFD0C4B0C4A13600C4A136007
:104524004FF040430B4A1360536020220A4BC3F8F8
:1045340080211A60FFF776FF002010BDB82D0020FF
:10454400CC2D0020F42D0020C42D0020BC2D0020F3
:10455400C02D00206460004000E100E04FF04022E4
:10456400D2F88800D2F88830C0F38800C3F38803F7
:104574009842F5D16FF48873184440B27047000034
:104584004FF04022936E526E10B5134013F08042E8
:1045940011D0114B1B681C682CB1002119605960A3
:1045A400FFF7DCFFA0474FF080420C4B1A60BDE8D8
:1045B4001040FFF737BF002BF9DA094B1B681C6862
:1045C4002CB11A605A60FFF7C9FF0121A047034BC1
:1045D4004FF00042EAE700BFC02D002064600040B5
:1045E400BC2D0020FFF7CCBF012203685A619A69F1
:1045F400D207FCD541F2AC52042103795B0103F1EB
:10460400804303F5703399507047000038B141B1CD
:10461400013AB2F5006F044838BF002070470348E0
:1046240070470148704700BF037000F0027000F04B
:1046340038B504460D4601F0F0FAA28892B222B9C8
:104644002A6001F0F0FA064838BD1422638802FBA0
:10465400034308332B6001F0E6FA0020F4E700BFBF
:104664000B7000F038B504460D4601F0D6FAA38865
:104674009BB223B92B6001F0D6FA0C4838BD142242
:104684006388E18802FB034308332B6063885A1C68
:1046940092FBF1F301FB13239BB26380A388013BDC
:1046A4009BB2A38001F0BFFA0020E7E70B7000F093
:1046B40090F83130022B0BD13022437F90F8210047
:1046C4005A43044B9B5823FA00F000F00100704752
:1046D4000020704714C00340002313B51C4A52F84D
:1046E400234094F8211081420ED00133042BF6D1DB
:1046F40002B010BD0028FBD19DF80730002BF7D085
:10470400A068FFF7F3F9F3E794F83130022BEFD107
:104714002046FFF7CDFF637E2076022BE8D194F884
:104724002E3003F0FF02002BE2D102A901F8012D83
:10473400A068FFF73BFA237E1BB194F82F30002BBF
:10474400D8D00023A06884F82F30FFF7EFF9CFE723
:104754001C2E0020012230B590F8324087B080F83A
:104764002C207CB9094D0368CDE9024504904C68BE
:104774002433CDE900240A684169C068FFF79CF935
:1047840007B030BD002380F82C30F9E74550000015
:10479400012330B590F8324087B080F82D307CB9D1
:1047A400094D0268CDE9024504904C683C32CDE9DC
:1047B40000340B6801698068FFF764F907B030BD05
:1047C400002380F82D30F9E7D1470000F7B5906A4F
:1047D40001A91446FFF72CFF144B984220D0002562
:1047E400019B1D619D6001F018FA019A0746D66885
:1047F40026B1D2E9002329462046B04701A9A06A80
:10480400FFF730FFA06A83889BB263B101A9FFF769
:104814000FFF01992046FFF7BBFF384601F003FA6A
:10482400012003B0F0BD84F82D30F6E70B7000F0E2
:10483400F8B5044617460D4601F0EFF9A388E2885F
:1048440006469A4205D800233B6001F0ECF916486D
:10485400F8BD1422238805F1100C02FB034308332E
:104864002A4603CA624518605960154603F10803D5
:10487400F6D11068142218602388E18802FB0343F0
:1048840008333B60238830465A1C92FBF1F301FB4A
:1048940013239BB22380A38801339BB2A38001F02E
:1048A400C2F90020D4E700BF0A7000F02DE9F341FB
:1048B4000D460446002800F0868001F0AEF9012D73
:1048C400064637D1A36A9B889BB2002B39D0A068D7
:1048D400FFF74CF90023A06A84F82D3083889BB23B
:1048E400002B34D1226893699B04FCD5023D012D31
:1048F4001BD8E068FFF73AF90023606A84F82C308B
:1049040083889BB2002B41D194F83130032B0CD017
:1049140042F2AC52042123795B0103F1804303F595
:1049240070339950022223685A61304601F07BF9B2
:10493400002009E0022D48D1636A9B889BB2002BBA
:10494400D4D101F070F9264802B0BDE8F08101A984
:10495400FFF76EFE0199A0680831FFF74FF9214F68
:10496400019B1F61A06A83889BB2002BBAD001A966
:10497400FFF778FE019BD3F80C80B8F1000FF1D05B
:104984009B68002239462046C047EBE76946FFF79B
:104994004FFE0099E0680831FFF730F9114F009B92
:1049A4001F61606A83889BB2002BADD06946FFF714
:1049B40059FE009BDD68002DF3D09B680022394628
:1049C4002046A847EDE70848BEE7032D8ED1A36A29
:1049D4009B889BB2002B7FF47AAF636A73E700BFB6
:1049E400087000F0097000F0027000F00368986924
:1049F4007047436A9888C0B270472DE9F3419846DE
:104A040000230546406A0E4684881746A4B2CDE9C1
:104A140000333CB16946FFF70BFE01A90446E86880
:104A2400FFF7ECF8009969B164B94868019BC01AB2
:104A34003860C8F800300B6833602B68986902B09E
:104A4400BDE8F0810021C8F8001039603160F4E756
:104A5400836A9888C0B270472DE9F34198460023D1
:104A64000546806A0E4684881746A4B2CDE9003311
:104A74003CB16946FFF7DCFD01A90446A868FFF7CD
:104A8400BDF8009969B164B94868019BC01A3860DF
:104A9400C8F800300B6833602B68986902B0BDE831
:104AA400F0810021C8F8001039603160F4E7007E1D
:104AB40070472DE9F04104460F469046FFF7A6FDE6
:104AC4000546002839D1152001F0CCF80646A26A23
:104AD40093889BB213B194F82E308BB323689E69EC
:104AE40016F002060ED104225A619A699207FCD587
:104AF40041F2AC52102123795B0103F1804303F5A9
:104B040070339950012384F8303094F8323033B93B
:104B1400B8444745206818D183699B06FCD566B91B
:104B240042F2AC52102123795B0103F1804303F577
:104B340070339950082223685A612846BDE8F081F1
:104B4400002EC5D0FFF77CF8C1E717F8011B02F06F
:104B540083F9DEE710B5044680B190F82E302BB906
:104B6400FFF7A6FD10B9A068FEF7C0FF002094F877
:104B74002E300133DBB284F82E3010BD0048FCE740
:104B8400027000F010B50446A0B190F82E309BB12D
:104B940090F82E30012B05D1FFF78AFD10B9A068DB
:104BA400FEF7C4FF002094F82E30013BDBB284F8FA
:104BB4002E3010BD0148FCE70148FAE7027000F00E
:104BC400057000F037B590F831500446022D1ED11F
:104BD400012190F82220457E837F01FA02F23020E1
:104BE400154925B900FB031342F2100105E0012D1C
:104BF40007D100FB031341F210015A50002003B007
:104C040030BD247E00FB0313002CF4D1ECE7012D0E
:104C1400F4D1037E73B911238DF80730FFF79AFF9F
:104C24002A460DF107012046FFF743FF2046FFF710
:104C3400A9FFE3E71323EFE700C00340F0B5044600
:104C44008BB09E4F03AE0D460FCF0FC697E80700FB
:104C540086E807001CB99A4C20460BB0F0BD0DB98C
:104C6400984CF9E73822002120462BF08FF9964919
:104C7400964A0B78002B40F0D3800120C2E9003320
:104C8400C2E90233087042F823402B7D286884F877
:104C940031300023206084F832302B7B23718C4B1D
:104CA400984240F0CA80202384F82330894B236142
:104CB4004FF4802300266361D5E9072362621680DE
:104CC4005680968084F82C60A3621E805E809E804D
:104CD4006B6803A90593EB8984F82D60ADF81C304B
:104CE4002B8A84F82F60ADF81A30AB7C8DF80C60F9
:104CF4008DF81830EB7C8DF81E3005238DF81930B3
:104D040002F02CF814212A7B734B287A03EB421708
:104D1400C7F8AC15A97A2E3240EA014C03EB4213D2
:104D2400C3F804C06A7AEB7A42EA034CC7F8BCC5FC
:104D3400E17784F820306B7DE07622776377AB7D72
:104D4400042284F82130EB7DA3772B7E84F8223073
:104D5400012301F047F80123022294F82010207F58
:104D640001F040F894F83130022B7DD13346012212
:104D740094F82110607F01F035F83346042294F84A
:104D84002210A07F01F02EF8012394F82120607FE7
:104D94001146CDE9003300F0DFFF00F03EFF2E7D29
:104DA4000746032E71D141F2AC5202212B7B042021
:104DB4005B0103F1804303F57033995041F25C02C7
:104DC40029688850297EEA7D42EA014241F2B851BD
:104DD4005A50A97D6A7D42EA014241F2B4515A50C7
:104DE4004FF0FF3242F248032868C2502B7D032B58
:104DF4000CBF0521042101F06BFF4FF440622B68C6
:104E04005A61FEF709FE002104F10800FEF792FD45
:104E1400014600284AD0314C384600F004FF1BE715
:104E2400002352F8231000293FF42DAF8C423FF4A5
:104E34002AAF0133042BF4D10DE7294B984207D153
:104E4400212384F82330274B23614FF4A02331E737
:104E5400254B98427FF404AF222384F82330234B5C
:104E640023614FF4C02325E7032B96D1334694F8EE
:104E74002110607F012200F0B5FF3346042294F82C
:104E84002210A07F00F0AEFF87E7022EA8D194F88D
:104E940021001749FEF732FFFEF722FF0023667652
:104EA400A37623762046FFF78DFE99E704F10C00E4
:104EB400FEF740FD04460028AED0ACE7FC2A030010
:104EC400027000F0037000F02C2E00201C2E002035
:104ED400008005400200040000C003400E7000F092
:104EE40000C0054002000500000006400200060064
:104EF400DD46000090F83130032B05D002294176BD
:104F040018BF0176FFF75EBE00487047057000F0D9
:104F140013B50446002862D00321FFF7C7FC002123
:104F24002046FFF7E7FF0023E17F1A46E07E00F00A
:104F340059FF002394F820101A46207F00F052FFF6
:104F440094F83130022B39D1002394F821101A46F9
:104F5400607F00F047FF002394F822101A46A07FD8
:104F640000F040FF0021012394F82120607FCDE967
:104F74000031114600F0F0FE94F8323013B90A22E1
:104F840023685A6194F83130032B04D0002194F83B
:104F94002100FEF7B3FEA068FEF718FDE068FEF7F7
:104FA40015FDFEF7F3FC0020636A18805880988092
:104FB400A36A18805880988002B010BD032BDBD1FF
:104FC400002394F821101A46607F00F00BFF0023A1
:104FD40094F822101A46A07F00F004FFCCE70148A1
:104FE400EAE700BF027000F0F0B587B00446164649
:104FF400FFF70CFB0546E8B90493104BCDE9011605
:105004006A4601A9606A03960593FFF711FC0546F9
:1050140080B994F82C306BB92046FFF7E5FA009973
:10502400FFF798FB94F83130032B03D02576204604
:10503400FFF7C8FD284607B0F0BD00BF017000F0BF
:1050440073B5506A01A91446FFF7F2FA2F4B984240
:1050540030D094F83200019B002839D12268916C39
:1050640011F4007129D02A499860196142F2480369
:105074004FF40071D15000F0D0FD01990646CD687F
:1050840035B14A688B682046D31A0A680969A8476B
:1050940001A9606AFFF7E6FA606A8588ADB2DDB1FE
:1050A40001A9FFF7C5FA01992046FFF753FB3046E3
:1050B40000F0B9FD012002B070BD906CC00507D5A9
:1050C4001448996018614FF4807142F24803D1E7A3
:1050D40000221A619A60CEE7012320462376FFF767
:1050E40071FD94F8313084F82C50032BDFD042F258
:1050F400AC52042123795B0103F1804303F570333F
:105104009950022223685A61D1E700BF0B7000F066
:105114000D7000F00C7000F090F8312010B5012AE9
:10512400034610D102290ED0827E8A4201D100208A
:1051340010BD997611B9FFF725FDF8E70129F6D1DD
:10514400FFF708FDF3E70148F2E700BF057000F040
:10515400F0B587B004461646FFF758FA054600BB7B
:105164000493114BCDE901166A4601A9A06A03967E
:105174000593FFF75DFB054698B994F82D3083B984
:1051840000F04BFDA36A06469B889BB233B100999D
:105194002046FFF7FDFA012384F83030304600F052
:1051A40042FD284607B0F0BD017000F070B588B02C
:1051B4000E22002104A82AF0E9FE01230D22002179
:1051C40068468DF810302AF0E1FE0223244C6A462A
:1051D400002120468DF8063001F0DEFC236B4FF6EB
:1051E400FF73204EE36100233546ADF8123004A965
:1051F400204601F084FC062000F020FABDF81230AD
:105204000133B0FBF3F09BB2B3F5806F3060ADF8BF
:10521400123002D2144B9842E9D80E2000F00EFA54
:105224001249134CB1FBF0F128680025E1FB00455D
:10523400104A0023204629462AF0C6FC0E4B084A91
:10524400186000200D4B1870936923F010039361CC
:1052540040220B4BC3F880211A6008B070BD00BF18
:1052640000800440302E002080841E0000B0710BAA
:1052740020A1070040420F00342E0020382E0020C9
:1052840000E100E0F7B500251D4B1E4C19681E4ACD
:10529400E0FB01450023204629462AF095FC4FF601
:1052A400E85400254FF6E75E4FF0FF37DFF860C0A3
:1052B400164E8D4208BF844211D380B260B1144AA5
:1052C400516A89B2536A9BB2ADF80630BDF8063014
:1052D4005B1A9BB29842F5D8002003B0F0BDDCF80D
:1052E400242092B2DCF824309BB2ADF80430BDF82F
:1052F40004309B1A9BB27345F4D980197941D8E7DD
:10530400302E002020A1070040420F001802FFFFAA
:1053140000800440054B5A69D20606D542F21402B5
:10532400102199500122024B1A70704700800440EA
:10533400382E002038B5124B0546D3F820310C46E0
:1053440003F00703013B032B17D8DFE803F0020A3D
:105354000E1201F0FBFD042305B1286004B1237093
:1053640038BD01F0DDFD0323F6E701F0FBFD052365
:10537400F2E701F0F3FD0223EEE700231846EBE722
:105384000080004037B50C460021114B0191D3F841
:105394008031054603F00303022B0ED0032B11D0FA
:1053A400012B03D101A8FFF7C5FF0D210DB1019B0E
:1053B4002B6004B1217003B030BD01F0D3FD052191
:1053C4000190F3E701F0CAFD02210190EEE700BF6E
:1053D4000080004038B5104B0546D3F840310C46E8
:1053E40003F00303022B0BD0032B0DD0012B0FD1A1
:1053F40001F0FCFD082305B1286004B1237038BD19
:1054040001F0FAFD0723F6E701F0F3FD0923F2E7C3
:1054140000231846EFE700BF0080004038B5104B6A
:105424000546D3F860310C4603F00303022B0BD07E
:10543400032B0DD0012B0FD101F0D8FD082305B1AA
:10544400286004B1237038BD01F0D6FD0723F6E7C8
:1054540001F0CFFD0923F2E700231846EFE700BF70
:105464000080004038B5134B0546D3F800320C4693
:1054740003F00703013B032B18D8DFE803F0020A0B
:105484000E1201F0B3FD082305B1286004B12370A6
:1054940038BD01F0B1FD0723F6E701F0AAFD0923A9
:1054A400F2E701F027FD0C23800AEDE700231846FC
:1054B400EAE700BF0080004038B5134B0546D3F837
:1054C40008320C4603F00703013B032B18D8DFE82E
:1054D40003F0020A0E1201F089FD082305B12860C9
:1054E40004B1237038BD01F087FD0723F6E701F00E
:1054F40080FD0923F2E701F0FDFC0C23800AEDE7AF
:1055040000231846EAE700BF0080004038B5104B7E
:105514000546D3F840320C4603F00303022B0BD0AC
:10552400032B0DD0012B0FD101F060FD082305B131
:10553400286004B1237038BD01F05EFD0723F6E74F
:1055440001F057FD0923F2E700231846EFE700BFF7
:105554000080004038B5104B0546D3F800310C46A6
:1055640003F00303022B0BD0032B0DD0012B0FD11F
:1055740001F0D6FC032305B1286004B1237038BDC3
:1055840001F03AFD0723F6E701F0E6FC0623F2E713
:1055940001230020EFE700BF0080004041F6713294
:1055A4000F4B10B5D969DA639A680E4C22F4401295
:1055B400A04288BF42F480129A600B4A0B4CD2F886
:1055C4001832A04223F0020388BF43F0020301F41F
:1055D4008031C2F8183211B10022014BDA6310BDD8
:1055E40000000340C017530200C0074080F0FA02D5
:1055F40008B501F091FCBDE80840FFF7CFBF0000FB
:1056040002280CD007D8012814D10B4B186FC0F313
:10561400013001307047032807D00E28F4E7064B09
:10562400D3F89000C0F30460F3E7034B186FC0F3A2
:105634008020EEE70020ECE700800040002307B55F
:105644000193242817D8DFE800F0131A1D262B3500
:105654003A3F44494E5358661A3F1616441A262BAD
:1056640026351A3F26663A3A3A3A262626494E0005
:1056740001F026FC0190019803B05DF804FB01F0F1
:1056840039FCF7E701F01CFC02460220FFF7B8FFE3
:10569400B2FBF0F0EEE701F02DFC02460320F5E743
:1056A40001F028FC02460320FFF7AAFFB2FBF0F04A
:1056B4004008DFE7002101A8FFF764FEDBE70021D3
:1056C40001A8FFF737FED6E7002101A8FFF782FE05
:1056D400D1E7002101A8FFF7A1FECCE7002101A832
:1056E400FFF7C0FEC7E7002101A8FFF7E5FEC2E708
:1056F400002101A8FFF72EFFBDE7094BD3F8803046
:1057040003F00303022BBAD0032B01D00020B1E72E
:1057140001F028FCAEE7002101A8FFF7F7FEAAE795
:105724000080004002280AD002D8012804D0704723
:1057340003280FD00E2815D1084600F02BB80A4ACA
:105744000139D2F8903023F0F85343EA0161C2F8EA
:1057540090107047044A0139136F23F4806343EABD
:1057640081211167704700BF00800040022103209F
:10577400FFF7D8BF08B50120FFF760FFBDE8084078
:10578400034988428CBF022101210320FFF7CABFCD
:1057940080F0FA0210B50446FFF72AFFFFF7E6FF90
:1057A400074A013C106F20F4405040EA043010676F
:1057B40001F0A0FBFFF7F2FEBDE81040FFF7DABFEF
:1057C40000800040002307B58DF80730242822D834
:1057D400DFE800F013212121212C32383E444A50C5
:1057E4005669213821213E212121212C213821698A
:1057F40032323232212121444A002E4B1B6F03F0F6
:105804000703013B032B06D8DFE803F00E020A0C62
:1058140004238DF807309DF8070003B05DF804FBFE
:105824000323F6E70623F4E70223F2E70DF1070169
:105834000020FFF7A7FDEEE70DF107010020FFF7B9
:1058440079FDE8E70DF107010020FFF7C3FDE2E76A
:105854000DF107010020FFF7E1FDDCE70DF1070181
:105864000020FFF7FFFDD6E70DF107010020FFF749
:1058740023FED0E70DF107010020FFF76BFECAE716
:105884000C4BD3F8803003F00303022B03D0032B1B
:1058940005D00023BDE701F02DFB0B23B9E701F090
:1058A40061FB0523B5E70DF107010020FFF72EFE8C
:1058B400B1E700BF0080004070B50C46242848D8EA
:1058C400DFE810F0250047004700470047005B0071
:1058D4006C007D008E009F00B000C100D200E30088
:1058E40047007D00470047008E00470047004700FF
:1058F40047005B0047007D004700E3006C006C003C
:105904006C006C004700470047009F00B0008B1EEE
:10591400042B2FD8DFE803F02B1E032E28000025CC
:105924000226FFF765FEFFF721FF604A136F23F09D
:1059340007033343136701F0DDFAFFF72FFEFFF788
:1059440019FF35B9032C04D142F228030121584A26
:10595400D15070BD41F228020121554B03269D6AA6
:105964009950C5F34005DCE700250426D9E7002556
:105974000126D6E700252E46D3E78C1EE4B20B2C75
:105984008CBF00214B4B494A98BF195DD2F8803136
:1059940023F003030B43C2F88031DAE78C1EE4B230
:1059A400032C8CBF0021444B404A98BF195DD2F8A8
:1059B400203123F007030B43C2F82031C9E7CC1F81
:1059C400E4B2022C8CBF00213C4B384A98BF195DCD
:1059D400D2F8403123F003030B43C2F84031B8E757
:1059E400CC1FE4B2022C8CBF0021354B2F4A98BF48
:1059F400195DD2F8603123F003030B43C2F8603120
:105A0400A7E7CC1FE4B2052C8CBF00212D4B274AFD
:105A140098BF195DD2F8003223F007030B43C2F894
:105A2400003296E7CC1FE4B2052C8CBF0021264B34
:105A34001E4A98BF195DD2F8083223F007030B43BE
:105A4400C2F8083285E7CC1EE4B2042C8CBF0021D6
:105A54001E4B164A98BF195DD2F8003123F0030398
:105A64000B43C2F8003174E705290CD00B290CBF95
:105A7400022100210D4AD2F8803023F003030B43A6
:105A8400C2F8803065E70321F4E7CC1FE4B2022CAE
:105A94008CBF00210E4B054A98BF195DD2F84032E5
:105AA40023F003030B43C2F8403252E70080004066
:105AB40000C00040182B0300242B0300282B0300F4
:105AC400282B03002B2B03002B2B0300312B03006B
:105AD400282B0300F8B504460020FFF773FE0328C3
:105AE4007BD045F60E03424A0221C2F8803041F2CF
:105AF4002803D15042F228030121D150916D11F4B1
:105B04008031FBD1637820781B0543EA0063A079D8
:105B1400374E0343E078657C43EA0043207943EA47
:105B24000033607943EA80131361237AE0791B061A
:105B340043EA8063E07A0343607A43EA0043A07A4D
:105B440043EA00239361637B126A002B18BF082188
:105B5400207B22F00D0243EA020343EA800341EA78
:105B64000301A37B31624FEA4317E37B207C4FEAB6
:105B74000311334632D1B26A22F0330242F00102F9
:105B84003A430A43B2621B4A996D32EA0101FBD1DE
:105B940041F2280202219950154A936D5B00FCD40E
:105BA4001169A37821F4700141EA0351116141F2B2
:105BB40018034FF00041D15018B942F228030221D2
:105BC400D15025B942F228030121094AD150A37CBE
